:100000000C9435000C945D000C945D000C945D0024
:100010000C945D000C945D000C945D000C945D00EC
:100020000C945D000C945D000C945D000C945D00DC
:100030000C945D000C945D000C945D000C945D00CC
:100040000C9423010C945D000C945D000C945D00F5
:100050000C945D000C945D000C945D000C945D00AC
:100060000C945D000C945D00870111241FBECFEF3E
:10007000D8E0DEBFCDBF11E0A0E0B1E0E4E1F6E002
:1000800002C005900D92A231B107D9F723E0A2E199
:10009000B1E001C01D92A235B207E1F710E0C5E35F
:1000A000D0E004C02197FE010E940203C433D107AF
:1000B000C9F70E94A6000C9408030C94000045B1F7
:1000C00021E030E0FC01078002C0220F331F0A94B8
:1000D000E2F7242725B980E00895FC0184B121E0EE
:1000E00030E0A901078002C0440F551F0A94E2F7CF
:1000F000482B44B995B1078002C0220F331F0A94E0
:10010000E2F72095292325B980E008951F93CF9326
:10011000DF93EC01162F0E94CC0286E091E09983D8
:1001200088831F83DF91CF911F91089580910001F3
:1001300090910101009709F4FFCF0895F89482E0AF
:1001400085BD81E080936E0078940895CF93DF930E
:10015000CDB7DEB760970FB6F894DEBF0FBECDBF48
:1001600065E0CE0101960E94860060E0CE0109960E
:100170000E9486000E949E000F2EF8EEAF2EF02DFA
:100180000F2EF3E0BF2EF02DC12CD12CE12CF12C41
:1001900000E010E021E042E0BE016F5F7F4F8AE7A0
:1001A00091E00E94A6010F2EF4EFAF2EF02DBB249C
:1001B000B39420E042E0BE01675F7F4F8AE791E0A1
:1001C0000E94A6018AE791E00E94A7028AE791E0D7
:1001D0000E94C402A0904903B0904A03C0904B0310
:1001E000D0904C03E0904D03F0904E0300914F03EC
:1001F00010915003EAE7F1E020813181428153817F
:1002000064817581868197810E94ED02F9F2709177
:10021000490360914A0350914B0340914C03309144
:100220004D0320914E0390914F03809150037083B2
:100230006183528343833483258396838783CF01ED
:100240000E941B02C3CF1F920F920FB60F92112470
:100250002F933F934F935F936F937F938F939F93CE
:10026000AF93BF93F8948091760190917701A0911C
:100270007801B091790184309105A105B10560F450
:100280000196A11DB11D8093760190937701A093F3
:100290007801B09379012BC02091490330914A0332
:1002A00040914B0350914C0360914D0370914E036C
:1002B00080914F0390915003A1E00E94E1022093AE
:1002C000490330934A0340934B0350934C0360938C
:1002D0004D0370934E0380934F03909350031092FD
:1002E000760110927701109278011092790178943A
:1002F000BF91AF919F918F917F916F915F914F913E
:100300003F912F910F900FBE0F901F9018958AE785
:1003100091E00E948C010895CF93DF93EC0188E077
:10032000888719860E949600FE01E353FE4F918351
:100330008083FE01CE0180529F4F148613867C96E7
:10034000E817F907D1F7DF91CF9108956F927F9267
:100350008F929F92AF92BF92CF92DF92EF92FF92D5
:100360000F931F93CF93DF93DC0118968C9118970E
:10037000882309F450C019968C911997883008F099
:100380004AC07C9011968C90119712969C9012976F
:100390001396DC9113971496CC91149715965C9153
:1003A000159716963C91169717966C901797FD0126
:1003B0009CE1899FE00DF11D11243B9671836083C0
:1003C000428381E0211101C080E083831482158281
:1003D0001682178210861186128613867486858689
:1003E0009686D787C08B518B328B638AA48AB58A55
:1003F000C68AD78AE08EF18E028F138F18968C9161
:100400001897815018968C93189719968C91199774
:100410008F5F19968C9380E0DF91CF911F910F91A0
:10042000FF90EF90DF90CF90BF90AF909F908F9014
:100430007F906F9008956F927F928F929F92AF926C
:10044000BF92CF92DF92EF92FF920F931F93CF93C1
:10045000DF93DC011B960D911C911C970115110572
:1004600009F465C0EC013C01B4EC6B0E711C07C0D3
:100470006C960B851C850115110509F458C04E01B9
:100480008E85882309F44FC02F85388949895A8978
:100490006B897C898D899E89A0E00E94F60241F4D7
:1004A000D801ED91FC910190F081E02DC8010995F2
:1004B000F4018585813029F018F0823061F033C075
:1004C0001686F4011786108A118A128A138A148AF2
:1004D000158A168A28C027853089418952896389FF
:1004E000748985899689A1E00E94E102F401278739
:1004F000308B418B528B638B748B858B968BA78C47
:10050000B0A0C1A0D2A0E3A0F4A005A116A10E94B2
:10051000ED0249F040F01786108A118A128A138A78
:10052000148A158A168AC615D70509F0A1CF80E06E
:10053000DF91CF911F910F91FF90EF90DF90CF90BF
:10054000BF90AF909F908F907F906F9008950F9382
:100550001F93CF93DF93EC018C0100521F4F8B85CB
:100560009C85009739F0DC01ED91FC910280F381CC
:10057000E02D09956C96C017D10789F780E0DF91CF
:10058000CF911F910F91089583B7816083BF089524
:1005900080E0089580E00895CF93DF93EC018EE032
:1005A00091E099838883809151038A838F5F809340
:1005B00051031E820E9496009D838C83DF91CF9110
:1005C00008950024A7FD00942A0F301D401D501DE2
:1005D000601D701D801D901D08952A153B054C055A
:1005E0005D056E057F058007910708950024A7FD2E
:1005F00000942A17300540055005600570058005F8
:1006000090050895EE0FFF1F0590F491E02D0994D9
:04061000F894FFCF8C
:100614001201000000005F006D0000000000C8022D
:02062400CA0208
:00000001FF
